:020000040800F2
:1000000000500020A1390008C9350008CB35000890
:10001000CD350008CF350008D135000800000000BC
:10002000000000000000000000000000D3350008C0
:10003000D535000800000000D7350008D935000884
:10004000E9390008E9390008E9390008E939000808
:10005000E9390008E9390008E9390008E9390008F8
:10006000E9390008E9390008E9390008E9390008E8
:10007000E9390008E9390008E9390008E9390008D8
:10008000E9390008E9390008E9390008E9390008C8
:10009000E9390008E9390008E9390008E9390008B8
:1000A000E9390008E9390008E9390008E9390008A8
:1000B000DD350008E9390008E9390008E9390008A8
:1000C000E9390008E9390008E9390008E939000888
:1000D000E9390008E9350008E9390008F535000874
:1000E000E9390008E9390008E93900080000000092
:1000F0000000000000000000000000000000000000
:0C01000000000000000000005FF808F1A3
:1001100010B5054C237833B9044B13B10448AFF341
:1001200000800123237010BD20000020000000008B
:100130002C3F000808B5034B1BB103490348AFF33C
:10014000008008BD00000000240000202C3F0008B3
:1001500081F0004102E000BF83F0004330B54FEA78
:1001600041044FEA430594EA050F08BF90EA020FE5
:100170001FBF54EA000C55EA020C7FEA645C7FEA78
:10018000655C00F0E2804FEA5454D4EB5555B8BF9B
:100190006D420CDD2C4480EA020281EA030382EA0C
:1001A000000083EA010180EA020281EA0303362D9E
:1001B00088BF30BD11F0004F4FEA01314FF4801C71
:1001C0004CEA113102D0404261EB410113F0004F83
:1001D0004FEA03334CEA133302D0524263EB43033A
:1001E00094EA050F00F0A780A4F10104D5F1200ED8
:1001F0000DDB02FA0EFC22FA05F2801841F1000133
:1002000003FA0EF2801843FA05F359410EE0A5F106
:1002100020050EF1200E012A03FA0EFC28BF4CF037
:10022000020C43FA05F3C01851EBE37101F00045ED
:1002300007D54FF0000EDCF1000C7EEB00006EEBFA
:100240000101B1F5801F1BD3B1F5001F0CD3490884
:100250005FEA30004FEA3C0C04F101044FEA4452DB
:1002600012F5800F80F09A80BCF1004F08BF5FEA62
:10027000500C50F1000041EB045141EA050130BD42
:100280005FEA4C0C404141EB010111F4801FA4F1E5
:100290000104E9D191F0000F04BF01460020B1FA3A
:1002A00081F308BF2033A3F10B03B3F120020CDA72
:1002B0000C3208DD02F1140CC2F10C0201FA0CF050
:1002C00021FA02F10CE002F11402D8BFC2F1200CB5
:1002D00001FA02F120FA0CFCDCBF41EA0C0190406B
:1002E000E41AA2BF01EB0451294330BD6FEA0404B4
:1002F0001F3C1CDA0C340EDC04F11404C4F120029F
:1003000020FA04F001FA02F340EA030021FA04F3B0
:1003100045EA030130BDC4F10C04C4F1200220FA07
:1003200002F001FA04F340EA0300294630BD21FA45
:1003300004F0294630BD94F0000F83F4801306BF0B
:1003400081F480110134013D4EE77FEA645C18BFFF
:100350007FEA655C29D094EA050F08BF90EA020F96
:1003600005D054EA000C04BF1946104630BD91EA8E
:10037000030F1EBF0021002030BD5FEA545C05D191
:100380004000494128BF41F0004130BD14F58004D0
:100390003CBF01F5801130BD01F0004545F0FE4144
:1003A00041F470014FF0000030BD7FEA645C1ABF79
:1003B000194610467FEA655C1CBF0B46024650EAB0
:1003C000013406BF52EA033591EA030F41F40021DC
:1003D00030BD00BF90F0000F04BF0021704730B562
:1003E0004FF4806404F132044FF000054FF0000137
:1003F00050E700BF90F0000F04BF0021704730B5F8
:100400004FF4806404F1320410F0004548BF4042CC
:100410004FF000013EE700BF42004FEAE2014FEA21
:1004200031014FEA02701FBF12F07F4393F07F4FFC
:1004300081F06051704792F0000F14BF93F07F4F2E
:10044000704730B54FF4607401F0004521F0004171
:1004500020E700BF50EA010208BF704730B54FF0F7
:1004600000050AE050EA010208BF704730B511F0FC
:10047000004502D5404261EB41014FF4806404F134
:1004800032045FEA915C3FF4DCAE4FF003025FEAB6
:10049000DC0C18BF03325FEADC0C18BF033202EB3E
:1004A000DC02C2F1200300FA03FC20FA02F001FA98
:1004B00003FE40EA0E0021FA02F11444C1E600BF37
:1004C00070B54FF0FF0C4CF4E06C1CEA11541DBFEA
:1004D0001CEA135594EA0C0F95EA0C0F00F0DEF8B5
:1004E0002C4481EA030621EA4C5123EA4C5350EA9A
:1004F000013518BF52EA033541F4801143F48013EB
:1005000038D0A0FB02CE4FF00005E1FB02E506F07B
:100510000042E0FB03E54FF00006E1FB03569CF0D0
:10052000000F18BF4EF0010EA4F1FF04B6F5007FD6
:1005300064F5407404D25FEA4E0E6D4146EB060648
:1005400042EAC62141EA55514FEAC52040EA5E50D1
:100550004FEACE2EB4F1FD0C88BFBCF5E06F1ED87B
:10056000BEF1004F08BF5FEA500E50F1000041EBB2
:10057000045170BD06F0004646EA010140EA02005F
:1005800081EA0301B4EB5C04C2BFD4EB0C0541EA81
:10059000045170BD41F480114FF0000E013C00F396
:1005A000AB8014F1360FDEBF002001F0004170BDBA
:1005B000C4F10004203C35DA0C341BDC04F11404D3
:1005C000C4F1200500FA05F320FA04F001FA05F25F
:1005D00040EA020001F0004221F0004110EBD3702C
:1005E00021FA04F642EB06015EEA430E08BF20EA58
:1005F000D37070BDC4F10C04C4F1200500FA04F3FB
:1006000020FA05F001FA04F240EA020001F000418C
:1006100010EBD37041F100015EEA430E08BF20EAFF
:10062000D37070BDC4F1200500FA05F24EEA020E47
:1006300020FA04F301FA05F243EA020321FA04F076
:1006400001F0004121FA04F220EA020000EBD3702D
:100650005EEA430E08BF20EAD37070BD94F0000F2D
:100660000FD101F00046400041EB010111F4801F61
:1006700008BF013CF7D041EA060195F0000F18BF12
:10068000704703F00046520043EB030313F4801F4E
:1006900008BF013DF7D043EA0603704794EA0C0F08
:1006A0000CEA135518BF95EA0C0F0CD050EA41061E
:1006B00018BF52EA4306D1D181EA030101F000419B
:1006C0004FF0000070BD50EA410606BF10461946C3
:1006D00052EA430619D094EA0C0F02D150EA0136CF
:1006E00013D195EA0C0F05D152EA03361CBF104610
:1006F00019460AD181EA030101F0004141F0FE41AF
:1007000041F470014FF0000070BD41F0FE4141F432
:10071000780170BD70B54FF0FF0C4CF4E06C1CEA32
:1007200011541DBF1CEA135594EA0C0F95EA0C0FE7
:1007300000F0A7F8A4EB050481EA030E52EA0335A2
:100740004FEA013100F088804FEA03334FF08055C3
:1007500045EA131343EA12634FEA022245EA1115F0
:1007600045EA10654FEA00260EF000419D4208BFA1
:10077000964244F1FD0404F5407402D25B084FEA4E
:100780003202B61A65EB03055B084FEA32024FF4FA
:1007900080104FF4002CB6EB020E75EB030E22BF57
:1007A000B61A754640EA0C005B084FEA3202B6EB17
:1007B000020E75EB030E22BFB61A754640EA5C00C6
:1007C0005B084FEA3202B6EB020E75EB030E22BF56
:1007D000B61A754640EA9C005B084FEA3202B6EB57
:1007E000020E75EB030E22BFB61A754640EADC0016
:1007F00055EA060E18D04FEA051545EA16754FEA78
:1008000006164FEAC30343EA52734FEAC2025FEA95
:100810001C1CC0D111F4801F0BD141EA00014FF024
:1008200000004FF0004CB6E711F4801F04BF0143F5
:100830000020B4F1FD0C88BFBCF5E06F3FF6AFAE11
:10084000B5EB030C04BFB6EB020C5FEA500C50F1A1
:10085000000041EB045170BD0EF0004E4EEA113124
:1008600014EB5C04C2BFD4EB0C0541EA045170BD2B
:1008700041F480114FF0000E013C90E645EA060E6F
:100880008DE60CEA135594EA0C0F08BF95EA0C0F9D
:100890003FF43BAF94EA0C0F0AD150EA01347FF4E5
:1008A00034AF95EA0C0F7FF425AF104619462CE7BC
:1008B00095EA0C0F06D152EA03353FF4FDAE10461F
:1008C000194622E750EA410618BF52EA43067FF470
:1008D000C5AE50EA41047FF40DAF52EA43057FF400
:1008E000EBAE12E74FF0FF3C06E000BF4FF0010C0B
:1008F00002E000BF4FF0010C4DF804CD4FEA410C6F
:100900007FEA6C5C4FEA430C18BF7FEA6C5C1BD03B
:1009100001B050EA410C0CBF52EA430C91EA030FBC
:1009200002BF90EA020F0020704710F1000F91EA19
:10093000030F58BF994208BF90422CBFD8176FEAE7
:10094000E37040F0010070474FEA410C7FEA6C5CB5
:1009500002D150EA013C07D14FEA430C7FEA6C5CBC
:10096000D6D152EA033CD3D05DF8040B704700BFE8
:100970008446104662468C461946634600E000BF36
:1009800001B5FFF7B7FF002848BF10F1000F01BD08
:100990004DF808EDFFF7F4FF0CBF012000205DF8D3
:1009A00008FB00BF4DF808EDFFF7EAFF34BF012058
:1009B00000205DF808FB00BF4DF808EDFFF7E0FFF1
:1009C00094BF012000205DF808FB00BF4DF808ED42
:1009D000FFF7CEFF94BF012000205DF808FB00BFA9
:1009E0004DF808EDFFF7C4FF34BF012000205DF88B
:1009F00008FB00BF4A0011D212F5001211D20DD52A
:100A00006FF47873B3EB62520ED44FEAC12343F014
:100A1000004343EA505323FA02F070474FF00000BE
:100A2000704750EA013002D14FF0FF3070474FF06D
:100A3000000070474FEA4102B2F1E04324BFB3F532
:100A4000001CDCF1FE5C0DD901F0004C4FEAC00245
:100A50004CEA5070B2F1004F40EB830008BF20F029
:100A60000100704711F0804F21D113F13872BCBFE3
:100A700001F00040704741F480114FEA5252C2F138
:100A80001802C2F1200C10FA0CF320FA02F018BF81
:100A900040F001004FEAC1234FEAD32303FA0CFCD4
:100AA00040EA0C0023FA02F34FEA4303CCE77FEA63
:100AB000625307D150EA01331EBF4FF0FE4040F4AD
:100AC0004000704701F0004040F0FE4040F400005C
:100AD000704700BF80F0004002E000BF81F000419D
:100AE00042001FBF5FEA410392EA030F7FEA226CD4
:100AF0007FEA236C6AD04FEA1262D2EB1363C1BF64
:100B0000D218414048404140B8BF5B42192B88BFD2
:100B1000704710F0004F40F4000020F07F4018BFF5
:100B2000404211F0004F41F4000121F07F4118BF15
:100B3000494292EA030F3FD0A2F1010241FA03FCBD
:100B400010EB0C00C3F1200301FA03F100F00043A5
:100B500002D5494260EB4000B0F5000F13D3B0F16D
:100B6000807F06D340084FEA310102F10102FE2ADC
:100B700051D2B1F1004F40EBC25008BF20F001004C
:100B800040EA03007047490040EB000010F4000FFA
:100B9000A2F10102EDD1B0FA80FCACF1080CB2EB8D
:100BA0000C0200FA0CF0AABF00EBC25052421843EC
:100BB000BCBFD0401843704792F0000F81F4000191
:100BC00006BF80F400000132013BB5E74FEA410364
:100BD0007FEA226C18BF7FEA236C21D092EA030FD0
:100BE00004D092F0000F08BF0846704790EA010F4A
:100BF0001CBF0020704712F07F4F04D1400028BF77
:100C000040F00040704712F100723CBF00F5000058
:100C1000704700F0004343F0FE4040F4000070478E
:100C20007FEA226216BF08467FEA2363014642023A
:100C300006BF5FEA412390EA010F40F4800070474D
:100C40004FF0000304E000BF10F0004348BF4042F3
:100C50005FEA000C08BF704743F0964301464FF02F
:100C600000001CE050EA010208BF70474FF000038B
:100C70000AE000BF50EA010208BF704711F00043CC
:100C800002D5404261EB41015FEA010C02BF84469C
:100C90000146002043F0B64308BFA3F18053A3F5FB
:100CA0000003BCFA8CF2083AA3EBC25310DB01FA42
:100CB00002FC634400FA02FCC2F12002BCF1004FC6
:100CC00020FA02F243EB020008BF20F00100704757
:100CD00002F1200201FA02FCC2F1200250EA4C00AB
:100CE00021FA02F243EB020008BF20EADC707047F1
:100CF0004FF0FF0C1CEAD0521EBF1CEAD15392EAFF
:100D00000C0F93EA0C0F6FD01A4480EA010C4002DA
:100D100018BF5FEA41211ED04FF0006343EA501034
:100D200043EA5111A0FB01310CF00040B1F5000F76
:100D30003EBF490041EAD3715B0040EA010062F125
:100D40007F02FD2A1DD8B3F1004F40EBC25008BF0F
:100D500020F00100704790F0000F0CF0004C08BF2D
:100D600049024CEA502040EA51207F3AC2BFD2F1FA
:100D7000FF0340EAC250704740F400004FF0000308
:100D8000013A5DDC12F1190FDCBF00F00040704742
:100D9000C2F10002410021FA02F1C2F1200200FA80
:100DA00002FC5FEA310040F1000053EA4C0308BF47
:100DB00020EADC70704792F0000F00F0004C02BF98
:100DC000400010F4000F013AF9D040EA0C0093F013
:100DD000000F01F0004C02BF490011F4000F013B6D
:100DE000F9D041EA0C018FE70CEAD15392EA0C0FDB
:100DF00018BF93EA0C0F0AD030F0004C18BF31F046
:100E0000004CD8D180EA010000F00040704790F01B
:100E1000000F17BF90F0004F084691F0000F91F0BF
:100E2000004F14D092EA0C0F01D142020FD193EA85
:100E30000C0F03D14B0218BF084608D180EA01000D
:100E400000F0004040F0FE4040F40000704740F0E9
:100E5000FE4040F4400070474FF0FF0C1CEAD052B7
:100E60001EBF1CEAD15392EA0C0F93EA0C0F69D013
:100E7000A2EB030280EA010C49024FEA402037D07E
:100E80004FF0805343EA111143EA10130CF0004075
:100E90008B4238BF5B0042F17D024FF4000C8B4265
:100EA00024BF5B1A40EA0C00B3EB510F24BFA3EB45
:100EB000510340EA5C00B3EB910F24BFA3EB910315
:100EC00040EA9C00B3EBD10F24BFA3EBD10340EA6F
:100ED000DC001B0118BF5FEA1C1CE0D1FD2A3FF6B5
:100EE00050AF8B4240EBC25008BF20F0010070476A
:100EF0000CF0004C4CEA50207F32C2BFD2F1FF030D
:100F000040EAC250704740F400004FF00003013A3D
:100F100037E792F0000F00F0004C02BF400010F4E1
:100F2000000F013AF9D040EA0C0093F0000F01F0F5
:100F3000004C02BF490011F4000F013BF9D041EA17
:100F40000C0195E70CEAD15392EA0C0F08D142024A
:100F50007FF47DAF93EA0C0F7FF470AF084676E71D
:100F600093EA0C0F04D14B023FF44CAF08466EE7F6
:100F700030F0004C18BF31F0004CCAD130F00042C4
:100F80007FF45CAF31F000437FF43CAF5FE700BF1C
:100F90004FF0FF3C06E000BF4FF0010C02E000BF45
:100FA0004FF0010C4DF804CD4FEA40024FEA4103E7
:100FB0007FEA226C18BF7FEA236C11D001B052EA9D
:100FC000530C18BF90EA010F58BFB2EB030088BF63
:100FD000C81738BF6FEAE17018BF40F001007047D2
:100FE0007FEA226C02D15FEA402C05D17FEA236CB4
:100FF000E4D15FEA412CE1D05DF8040B704700BFFB
:10100000844608466146FFE70FB5FFF7C9FF002891
:1010100048BF10F1000F0FBD4DF808EDFFF7F4FFCA
:101020000CBF012000205DF808FB00BF4DF808ED63
:10103000FFF7EAFF34BF012000205DF808FB00BF86
:101040004DF808EDFFF7E0FF94BF012000205DF8A8
:1010500008FB00BF4DF808EDFFF7D2FF94BF012059
:1010600000205DF808FB00BF4DF808EDFFF7C8FF52
:1010700034BF012000205DF808FB00BF4FEA4002AA
:10108000B2F1FE4F0FD34FF09E03B3EB12620DD9B6
:101090004FEA002343F0004310F0004F23FA02F020
:1010A00018BF404270474FF00000704712F1610FC7
:1010B00001D1420205D110F0004008BF6FF000409E
:1010C00070474FF00000704738B50E4B0546187852
:1010D0004FF47A73B3FBF0F30B4A1068B0FBF3F0F4
:1010E00000F09EF8044658B90F2D09D8024629464B
:1010F0004FF0FF3000F054F8044B20461D6038BD1F
:10110000012038BD000000201C0000200400002049
:10111000074A08B51368032043F01003136000F07A
:101120002DF80020FFF7D0FF02F028FA002008BDBC
:1011300000200240034A044B11681B780B441360E3
:10114000704700BF7400002000000020014B1868A9
:10115000704700BF7400002038B50446FFF7F6FF63
:101160000546631C1EBF044B1B78E418FFF7EEFF17
:10117000401B8442FAD838BD00000020074A000214
:10118000D36800F4E06023F4E0631B041B0C43F01D
:10119000BF6343F400330343D360704700ED00E0C6
:1011A000174B30B5DC68C4F30224C4F10703251DD6
:1011B000042B28BF0423062D4FF0010598BF0024FF
:1011C00005FA03F303F1FF3388BF033C1940A14044
:1011D00005FA04F4013C2240002842EA01024FEAE9
:1011E0000212AFBF00F16040064B00F00F00D2B218
:1011F000A5BFD2B200F561401A5480F8002330BD7B
:1012000000ED00E014ED00E00123420900F01F00B2
:1012100003FA00F0014B43F82200704700E100E0C0
:101220000138B0F1807F0AD2F021064B064A58609F
:1012300082F823100020072298601A60704701206E
:10124000704700BF10E000E000ED00E090F82130B2
:1012500010B5022B03D004238363012010BD036863
:101260001A6822F00E021A601A6822F001021A604F
:10127000184A93421FD0143293421ED01432934224
:101280001DD0143293421DD0143293421DD014321B
:1012900093420CBF4FF480134FF080730E4A00242A
:1012A0005360012380F82130436B80F820407BB1EC
:1012B0009847204610BD0123F0E71023EEE74FF4D6
:1012C0008073EBE74FF48053E8E74FF48033E5E7B2
:1012D000184610BD08000240000002402DE9F74FFB
:1012E00000221646654BDFF8A4E1DFF8A4C14FF0F9
:1012F00001080C6808FA06F808EA0404A0457FD142
:101300004D68122D00F0AF8000F28880022D00F0B1
:10131000A7807CD8002D00F08E80012D00F09E80EB
:101320004FF00F09FF2C93BF824606F18045083D20
:10133000D0F800B092BFB500D0F804B0AD0009FA03
:1013400005F82BEA080802FA05F588BF00F1040A3F
:1013500048EA0505CAF80050D1F804A01AF0805FE9
:101360004ED0474D464FAD6926F0030845F00105C4
:10137000BD61BD6908F1804805F00105019508F5DA
:10138000803806F0030B019D4FEA8B0BD8F808500C
:1013900009FA0BF925EA09093A4DA84268D005F582
:1013A0008065A84266D005F58065A84264D005F541
:1013B0008065A8420CBF0325042505FA0BF545EA14
:1013C0000905C8F808501D681AF4803F14BF25436A
:1013D000A5431D605D681AF4003F14BF2543A54373
:1013E0005D609D681AF4801F14BF2543A5439D606E
:1013F000DD681AF4001F14BF2C4325EA0404DC60E6
:101400000136102E7FF473AF03B0BDE8F08F032DCB
:1014100022D0112D84D1CA68043281E71A4FBD420F
:1014200009D012D8DFF86C904D4504D009F5803909
:101430004D457FF475AF8A68C2B1012A0CBFC0F870
:101440001080C0F8148008226AE77545F3D065451E
:10145000F1D0DFF84490EBE7002261E7CA685FE76C
:10146000CA6808325CE7CA680C3259E7042257E7B9
:101470000025A2E70125A0E702259EE70004014020
:10148000001002400008014000002110000031104F
:101490000000321000001110000022100AB101619A
:1014A00070470904FBE70268536913F480630DD0A9
:1014B0006FF48063536104232022036400230363D9
:1014C00080F83C3080F83D20012070471846704776
:1014D0002DE9F843044617469946C1F307488EB2F2
:1014E0002568B8F1010F0CBF6B69AB6936EA0303DD
:1014F00014BF0120002008B9BDE8F8836B695A05C4
:1015000012D52B68202243F400732B606FF48063A4
:101510006B610423236400230120236384F83C309F
:1015200084F83D20BDE8F8837B1CD9D04FB9002357
:101530002022236384F83C3084F83D200320BDE85A
:10154000F883FFF703FEA0EB09008742C8D2EEE75D
:101550002DE9F843044690461F46089EC1F307490B
:101560008DB22368B9F1010F0CBF5B699B6935EA45
:1015700003030CBF01230023434502D00020BDE834
:10158000F8837B1CEDD05FB900232022236384F80D
:101590003C3084F83D20032084F83E30BDE8F883D9
:1015A000FFF7D4FD801B8742DBD2EDE770B5044620
:1015B0000D46164623685B691B0601D5002070BDE9
:1015C0002046FFF770FFA8B96A1CF3D065B9236CF9
:1015D000202243F02003236400230320236384F8A4
:1015E0003C3084F83D2070BDFFF7B0FD801B854284
:1015F000E0D2ECE7012070BD2DE9FF4115460268FD
:10160000984613680B9E43F4807313600F46009650
:101610000A9B00224FF001110446FFF799FF68B9B9
:10162000236807F0FE071F610A9A33461A492046CD
:10163000FFF74EFF30B1236C042B18D0032004B009
:10164000BDE8F081236803905A690A9903929B6967
:10165000324603932046039BFFF7A8FF48B1236C53
:10166000042BEBD12268136843F40073136001204C
:10167000E5E7B8F1010F236802D1EDB21D61DEE7A5
:101680002A0A1A610A9932462046FFF78FFF00287E
:10169000E5D12368F1E700BF020001002DE9FF4119
:1016A0009846036816461A680B9D42F480621A60D9
:1016B0001A680F4642F480721A604FF001110095CB
:1016C0000A9B00220446FFF743FF80B92368FFB25C
:1016D00007F0FE021A612D492B460A9A2046FFF7B1
:1016E000F7FE40B1236C042B01D1012000E0032060
:1016F00004B0BDE8F081236803905A690A99039207
:101700009B692A4603932046039BFFF74FFF40B196
:10171000236C042BEBD12268136843F4007313602D
:10172000E3E7B8F1010F236824D1F6B21E612A461F
:101730000A992046FFF73AFF02460028E8D12168BF
:1017400020460B6843F480730B6000950A9B4FF0B2
:101750000111FFF7FDFE0028C9D1236847F00107FA
:101760001F610A9A2B4609492046FFF7B1FE00285F
:10177000B8D1BDE7320A1A610A992A462046FFF716
:1017800015FF0028C4D12368CFE700BF0200010085
:1017900070B504460D4616462068436913F04003B1
:1017A00001D0002070BD4269D2060BD56FF0100247
:1017B00042612022236484F83C302363012084F8B2
:1017C0003D2070BD5DB9236C032043F020032364EA
:1017D000202384F83D30002384F83C3070BDFFF7AF
:1017E000B5FC801B8542D7D2EDE770B504460D46A7
:1017F000164623685B695B0701D5002070BD204653
:10180000FFF751FEA8B96A1CF3D065B9236C2022FA
:1018100043F02003236400230320236384F83C3037
:1018200084F83D2070BDFFF791FC801B8542E0D21B
:10183000ECE7012070BD000038B5044608B901206E
:1018400038BD90F83D3003F0FF021BB980F83C2012
:1018500001F072FB2423226884F83D30136823F0E2
:101860000103136000F09EFC63682F4A934230D856
:101870002E4A9042E3D92E4A2168B0FBF2F24A6028
:1018800001320A62284A0138934232D85B00B0FB29
:10189000F3F0431CC3F30B03042B38BF0423CB61C9
:1018A000226AE369002013430B60E2682369134353
:1018B0008B60A26963691343CB600B6843F001033B
:1018C0000B602023206484F83D30206384F83E00C0
:1018D00038BD184A9042B2D9154D4FF49672B0FBFC
:1018E000F5F521686A434D604FF47A75B2FBF5F265
:1018F000C6E7A26852B903EB4303B0FBF3F0431C05
:10190000C3F30B036BB143F40043C8E719225343FD
:10191000B0FBF3F0431CC3F30B0313B143F4404398
:10192000BDE70123BBE700BFA08601007F841E0046
:1019300040420F00FF083D002DE9F34704469A4658
:10194000884691460C9EFFF701FC94F83D30054611
:10195000202B03D0022002B0BDE8F08700901923AD
:1019600001223E492046FFF7F3FD0028F2D194F80A
:101970003C30012BEED0012384F83C302368002753
:101980001A684146D20758BF1A6820465CBF42F029
:1019900001021A601A6822F400621A60212384F896
:1019A0003D30402384F83E300A9B27646362BDF8D3
:1019B0002C30019563852A4B0096E362638D4A467D
:1019C00023855346FFF718FE00282AD0236C84F89D
:1019D0003C70042B07D10120BDE7FFF7E7FD20B1E4
:1019E000236C042B34D00320B5E7616A27684B1CB5
:1019F00063620B78228D3B61638D501E013B9BB26D
:101A000063857B6980B25B0720850AD548B18B1C52
:101A100063624B78023A3B61638D2285013B9BB246
:101A20006385238D2A4631462046002BD5D1FFF70A
:101A3000DCFE0028D4D12268136843F400731360DD
:101A4000202384F83C0084F83D3084F83E0082E78F
:101A50002268136843F400731360BCE702001000AF
:101A60000000FFFF2DE9F047044686B09A460D4678
:101A70009146109FFFF76AFB94F83D300646202BF5
:101A800004D00225284606B0BDE8F087009019234F
:101A9000012281492046FFF75BFD0028F1D194F82F
:101AA0003C30012BEDD0012384F83C3023684FF00B
:101AB00000081A682946D20758BF1A6820465CBF3A
:101AC00042F001021A601A6822F400621A602223AE
:101AD00084F83D30402384F83E300E9BC4F84080AB
:101AE0006362BDF83C30019663856C4B0097E362FE
:101AF000638D4A4623855346FFF7D0FD054630B136
:101B0000236C84F83C80042B3DD10125BAE7228D5B
:101B1000236892B902905A6902929A690292029AD3
:101B20001A6842F400721A60202384F83D300023C2
:101B300084F83E3084F83C30A4E7012A25D11A68A5
:101B400022F480621A6072B6236803905A69039285
:101B50009A690392039A1A6842F400721A6062B694
:101B6000DFF83C81238D002BDED0032B77D8012BAF
:101B700027D1324639462046FFF70AFE00283FD0DB
:101B8000236C202BC1D103257CE7022A1A680ED1D1
:101B900042F400621A6072B6236804905A69049293
:101BA0009A690492049A1A6822F48062D6E742F491
:101BB00080621A6005905A6905929B690593059B9E
:101BC000CEE7022B00963B464FF0000241462046EE
:101BD00024D1FFF7BDFC0028D5D172B623681A685E
:101BE00042F400721A60626A1B69511C61621370D0
:101BF000238D013B2385638D013B9BB2638562B6D8
:101C0000636A5A1C6262226812691A70238D013B52
:101C10002385638D013B9BB26385A3E7FFF798FCA7
:101C200002460028AFD121680B6823F480630B6063
:101C300072B6636A2046591C61622168096919708D
:101C4000238D0096013B2385638D4146013B9BB26A
:101C500063853B46FFF77CFC0028BFD093E7324604
:101C600039462046FFF794FD002889D1636A5A1C43
:101C70006262226812691A70238D2268013B2385F3
:101C8000638D013B9BB2638553695B077FF56AAF48
:101C9000636A591C6162B7E7020010000000FFFF91
:101CA0000400010003682DE9F341DB07054610D469
:101CB0002B689F075ED42B68190700F195802B686D
:101CC0005A0700F1BF80EA69002A40F02D81002008
:101CD00014E0904C636803F00C03042B07D0636896
:101CE00003F00C03082B0CD16368DE0309D52368CD
:101CF0009C03DDD56B68002BDAD1012002B0BDE872
:101D0000F0816B68B3F5803F10D1236843F48033D2
:101D10002360FFF71BFA064623689803C8D4FFF731
:101D200015FA801B6428F7D90320E7E79BB92368DD
:101D300023F480332360236823F480232360FFF798
:101D400005FA064623689903B2D5FFF7FFF9801B11
:101D50006428F7D9E8E7B3F5A02F236803D143F44B
:101D600080232360D1E723F480332360236823F4A6
:101D70008023CDE7674C636813F00C0F07D06368CE
:101D800003F00C03082B10D16368DA030DD4236829
:101D90009B0702D52B69012BAFD123686A6923F019
:101DA000F80343EAC203236085E72A695A4B6AB104
:101DB00001221A60FFF7CAF9064623689F07ECD490
:101DC000FFF7C4F9801B0228F7D9ADE71A60FFF7C7
:101DD000BDF90646236898077FF56DAFFFF7B6F9A2
:101DE000801B0228F6D99FE7AA694A4C4B4BDAB10F
:101DF00001221A60FFF7AAF90646636A9B070DD510
:101E00004FF4FA52464B1B68B3FBF2F3019300BF49
:101E1000019B5A1E0192002BF9D150E7FFF796F96A
:101E2000801B0228E9D97FE71A60FFF78FF9064681
:101E3000636A9F077FF543AFFFF788F9801B02288D
:101E4000F6D971E7334CE369D80024D40127E3695C
:101E500043F08053E361E36903F080530093009BF8
:101E6000304E3368D90518D5EB68012B26D1236A8B
:101E700043F001032362FFF769F941F28836804697
:101E8000236A9B073FD5002F3FF41DAFE36923F082
:101E90008053E36117E70027E2E7336843F4807378
:101EA0003360FFF753F980463368DA05DCD4FFF777
:101EB0004DF9A0EB08006428F6D935E7ABB9236AE1
:101EC00041F2883823F001032362236A23F00403DC
:101ED0002362FFF73BF90646236A9807D3D5FFF73D
:101EE00035F9801B4045F7D91EE7052B236A03D13E
:101EF00043F004032362BAE723F001032362236A59
:101F000023F00403B6E7FFF721F9A0EB0800B04285
:101F1000B6D909E700100240000042428004424264
:101F20001C00002000700040224C636803F00C038A
:101F3000082B3FF4E2AE00231F4E022A33602BD160
:101F4000FFF704F90746236899011FD42B6AB3F5FC
:101F5000803F05D16268A96822F400320A436260BA
:101F6000696A62680B4322F47412134363600123AD
:101F70003360FFF7EBF8054623689A013FF5A7AEFB
:101F8000FFF7E4F8401B0228F6D9CDE6FFF7DEF8AC
:101F9000C01B0228D7D9C7E6FFF7D8F80546236843
:101FA0009B017FF594AEFFF7D1F8401B0228F6D9CC
:101FB000BAE600BF001002406000424230B51B4B41
:101FC00087B002AC03F1100522461868596808333F
:101FD00003C2AB421446F7D101238DF8043002232B
:101FE00013498DF805304B6803F00C02042A1BD00E
:101FF000082A02D00F4807B030BDC3F3834206A8B9
:102000000244DB0312F8102C0BD54B680A48C3F3CB
:102010004043504306AA134413F8143CB0FBF3F0BA
:10202000E9E706485043E6E70348E4E7483F00088D
:102030000010024000127A00001BB70000093D00AA
:10204000544A2DE9F0411368054603F007038B421B
:102050000E462AD329688C0734D4CA0747D44D4A80
:10206000136803F007039E42C0F082802A684A4C3E
:1020700012F0040F40F08780130706D563682A69C1
:1020800023F4605343EAC2036360FFF797FF63687A
:10209000424AC3F30313D35CD840414B186000207D
:1020A000FFF712F80020BDE8F081136823F0070362
:1020B0000B431360136803F007039942CAD0012051
:1020C000BDE8F081344B11F0040F1EBF5A6842F492
:1020D000E0625A60080742BF5A6842F460525A6090
:1020E0005A68A86822F0F00202435A60B5E76A68AD
:1020F000294C012A23681CD113F4003FDFD0636808
:1021000041F2883823F0030313436360FFF71EF89E
:102110006B680746012B14D1636803F00C03042B92
:102120009DD0FFF713F8C01B4045F5D90320BDE84B
:10213000F081022A02D113F0007FDFE713F0020FD3
:10214000DCE7022B0FD1636803F00C03082B86D069
:10215000FEF7FCFFC01B4045F5D9E7E7FEF7F6FFA9
:10216000C01B4045E2D8636813F00C0FF6D176E748
:10217000136823F0070333431360136803F0070366
:102180009E429CD172E76368E96823F4E0630B43E5
:10219000636071E70020024000100240583F0008D1
:1021A0001C000020044B054A5B68C3F30223D35C88
:1021B000034A1068D840704700100240683F00088A
:1021C0001C000020044B054A5B68C3F3C223D35CA8
:1021D000034A1068D840704700100240683F00086A
:1021E0001C000020036A70B523F001030362036A38
:1021F000446882690D6822F073022A438D6823F0D7
:1022000002032B430A4DA8420BD1CD6823F00803EB
:102210002B438E694D6924F44074354323F0040345
:102220002C43446082614A684263036270BD00BF10
:10223000002C0140036A70B523F480730362036AC3
:102240004468C2690D6822F073022A438D6823F442
:10225000007343EA05230B4DA8420DD1CD6823F44A
:10226000006343EA05238E694D6924F440543543E5
:1022700023F4806344EA05144460C2614A68C2637F
:10228000036270BD002C0140036A30B523F4805313
:102290000362036A4468C2690D6822F4E64242EAB6
:1022A00005228D6823F4005343EA0533064DA84206
:1022B00002BF4D6924F4804444EA85144460C2613D
:1022C0004A680264036230BD002C014003680020AC
:1022D000DA6842F00102DA601A6842F001021A601C
:1022E0007047704790F83C3070B5012B4FF00203F7
:1022F0001CD0012280F83D30036880F83C209A68A9
:1023000022F47F4222F077029A600A68402A79D04C
:1023100019D8102A00F093800AD8002A00F089808A
:10232000012380F83D30002380F83C30184670BD12
:10233000202A00F08A80302AF2D19A6822F07002B6
:1023400042F0370236E0702A36D01BD8502A42D0ED
:10235000602AE5D11C6A4D6824F01004CE681C6226
:1023600099691A6A21F4704122F0A00242EA05122A
:1023700041EA063199611A629A6822F0700242F0CD
:10238000670217E0B2F5805F11D0B2F5005FC7D1E8
:102390008A684D689C68C9682A4324F47F4442EAED
:1023A000012222439A609A6842F4804202E09A68CD
:1023B00022F007029A60B3E78A684D689C68C96892
:1023C0002A4324F47F4442EA012222439A609A6815
:1023D00042F07702EEE74C68CE68196A1D6A21F078
:1023E0000A0125F001051D629A69214322F0F002DD
:1023F00042EA06129A6119629A6822F0700242F06B
:102400005702D7E74C68CE68196A1D6A21F00A01A5
:1024100025F001051D629A69214322F0F00242EA8B
:1024200006129A6119629A6822F0700242F047021D
:10243000C0E79A6822F0700242F00702BAE79A6891
:1024400022F0700242F01702B4E79A6822F070029C
:1024500042F02702AEE77047704770477047036845
:1024600010B51A69044691070ED5DA6892070BD5A4
:102470006FF002021A6101229B6902779B0777D0F5
:10248000FFF7EAFF0023237723681A69500710D566
:10249000DA6851070DD56FF004021A6102229B69B8
:1024A000227713F4407F204668D0FFF7D5FF002342
:1024B000237723681A6912070FD5DA6810070CD53D
:1024C0006FF008021A610422DB692277990720461F
:1024D0005AD0FFF7C1FF0023237723681A69D20679
:1024E00010D5DA68D0060DD56FF010021A610822F7
:1024F000DB69227713F4407F20464BD0FFF7ACFF17
:102500000023237723681A69D10708D5DA68D20730
:1025100005D56FF0010220461A6100F095FE236890
:102520001A69100608D5DA68110605D56FF0800221
:1025300020461A6100F075F923681A69520608D519
:10254000DA68500605D56FF0400220461A61FFF7A1
:1025500085FF23681A69910622D5DA6892061FD58D
:102560006FF020022046BDE810401A6100F058B913
:10257000FFF771FF2046FFF770FF83E7FFF76BFF60
:102580002046FFF76AFF92E7FFF765FF2046FFF757
:1025900064FFA0E7FFF75FFF2046FFF75EFFAFE7AE
:1025A00010BD00001A4A036890420AD0B0F1804F73
:1025B00007D0A2F59432904203D002F58062904297
:1025C00015D14A6823F070031343114A90420AD090
:1025D000B0F1804F07D0A2F59432904203D002F5BB
:1025E0008062904203D1CA6823F4407313434A695E
:1025F00023F08003134303608B68C3620B6883621C
:10260000034B984204BF0B69036301234361704786
:10261000002C014010B50446A0B190F83D3003F005
:10262000FF021BB980F83C2001F044F80223206827
:1026300084F83D30211DFFF7B5FF0123002084F809
:102640003D3010BD012010BD10B50446A0B190F87A
:102650003D3003F0FF021BB980F83C20FFF741FE3C
:102660000223206884F83D30211DFFF79BFF0123E2
:10267000002084F83D3010BD012010BD036A70B504
:1026800023F010030362036A446882690D6822F430
:10269000E64242EA05228D6823F0200343EA05134F
:1026A0000B4DA8420DD1CD6823F0800343EA0513FA
:1026B0008E694D6924F44064354323F0400344EAB5
:1026C0008504446082614A688263036270BD00BF12
:1026D000002C014038B590F83C300446012B4FF0F7
:1026E000020025D0012384F83D0084F83C300C2AF8
:1026F00018D8DFE802F0071717171E1717172F173C
:10270000171740002068FFF76DFD236809699A6973
:1027100042F008029A619A6922F004029A619A6969
:102720000A439A610123002084F83D3084F83C007C
:1027300038BD2068FFF7A2FF236809699A6942F44F
:1027400000629A619A6922F480629A619A6942EA07
:102750000122E6E72068FFF76DFD23680969DA6961
:1027600042F00802DA61DA6922F00402DA61DA6919
:102770000A43DA61D6E72068FFF786FD2368096916
:10278000DA6942F40062DA61DA6922F48062DA61BD
:10279000DA6942EA0122ECE710B50124036A8C40B1
:1027A00023EA04030362036A8A401A43026210BDEB
:1027B00010B5044601220068FFF7EEFF2368064AC1
:1027C0000020934202BF5A6C42F400425A641A68D5
:1027D00042F001021A6010BD002C014090F83C301C
:1027E00010B5012B4FF0020318D080F83D3003687C
:1027F0000C685A68496822F070025A605A6822438D
:102800005A609A6822F080029A609A680A439A6035
:10281000012380F83D30002380F83C30184610BD7D
:10282000704770470368DA6822F49072DA605A6978
:1028300022F001025A61202380F83A3070470000EC
:102840002DE9F0470568C2682B69016923F44053FC
:1028500013432B618368EA680B43416922F4B05249
:1028600022F00C020B431343EB606B69826923F483
:10287000407313436B61404B81469D424FF01904F6
:1028800046D1FFF79FFC04FB00F3D9F804604FF03A
:102890006408B600B3FBF6F3B3FBF8F31E01FFF7D1
:1028A00091FC6043D9F804309B00B0FBF3F7FFF7CD
:1028B00089FC6043D9F804309B00B0FBF3F3B3FB11
:1028C000F8F308FB13731B013233B3FBF8F303F087
:1028D000F007FFF777FC6043D9F804209200B0FBC3
:1028E000F2FAFFF76FFC6043D9F804309B00B0FBAD
:1028F000F3F3B3FBF8F308FB13A31B013233B3FB71
:10290000F8F303F00F033B433344AB60BDE8F087BB
:10291000FFF748FC04FB00F3D9F804604FF06408AB
:10292000B600B3FBF6F3B3FBF8F31E01FFF73AFC76
:102930006043D9F804309B00B0FBF3F7FFF732FC9B
:102940006043D9F804309B00B0FBF3F3B3FBF8F31A
:1029500008FB13731B013233B3FBF8F303F0F007EA
:10296000FFF720FC6043D9F804209200B0FBF2FA94
:10297000FFF718FCB7E700BF0038014010B5044668
:1029800040B390F8393003F0FF021BB980F83820CB
:1029900000F080FF2423226884F83930D368204671
:1029A00023F40053D360FFF74BFF236800201A691C
:1029B00022F490421A615A6922F02A025A61DA68B6
:1029C00042F40052DA602023E06384F8393084F85E
:1029D0003A3010BD012010BD90F83A30202B20D1A4
:1029E000E9B1E2B190F83830012B1AD0C285828566
:1029F00000232222C36380F83A2002688162D168F2
:102A000080F8383041F48071D1605169184641F046
:102A100001015161D16841F02001D160704701206E
:102A2000704702207047704790F83A3010B5222B5B
:102A300036D183680169B3F5805F0268836A23D168
:102A40005268E9B9C2F3080223F8022B8362C48DED
:102A5000013CA4B2C4858CB90368DA6822F0200274
:102A6000DA60DA6822F48072DA605A6922F00102D0
:102A70005A61202380F83A3000F08AFB002010BD14
:102A8000D2B223F8012BE1E721B9591C52688162C7
:102A90001A70DCE75268591C816202F07F02F7E786
:102AA000022010BD70470000036870B51A68044624
:102AB0001607D9685D6907D196065AD58D0658D58F
:102AC000BDE87040FFF7B0BF15F0010502D111F469
:102AD000907F4ED0D30705D5CE0542BFE36B43F0C0
:102AE0000103E363500704D51DB1E36B43F0020318
:102AF000E363930704D51DB1E36B43F00403E36381
:102B0000160704D51DB1E36B43F00803E363E36BE1
:102B1000002B66D0950604D5880602D52046FFF71F
:102B200083FF236820465D69E26B110702D415F02C
:102B300040051AD0FFF776FE23685A69520610D571
:102B40005A69606B22F040025A6150B1254B4363D1
:102B5000FEF77CFB002844D0606BBDE87040436BFF
:102B600018472046FFF79EFF70BDFFF79BFFE56308
:102B700070BD160627D50D0625D594F83920212AD3
:102B80002FD1A268B2F5805F226A17D11188C1F3F4
:102B900008015960216979B902322262E28C013A56
:102BA00092B2E284EAB9DA6822F08002DA60DA6886
:102BB00042F04002DA6070BD0132EEE7511C216242
:102BC00012785A60EAE750060BD54A0609D5DA684A
:102BD000204622F04002DA60202384F83930FFF7E3
:102BE00022FF70BDE92B000808B50023406AC385A9
:102BF000C384FFF757FF08BD7FB5002306AA02F87C
:102C0000013D4FF47A7302930123D0218DE80C002B
:102C100002460448FEF726FF9DF8170007B05DF84E
:102C200004FB00BF780000207FB54FF47A7306AA3A
:102C300002F8011D02930123D0218DE80C00024609
:102C40000248FEF779FE07B05DF804FB780000202B
:102C5000F8B514461D460F460646FFF7CDFFC4F1F2
:102C600008039D40C7F10701EDB20D41FF21E41BB0
:102C70000734013701FA07F741FA04F43C432040D6
:102C80002843C1B23046FFF7CFFF0120F8BD70B531
:102C9000164605460C46FFF7AFFF012346B103FA7F
:102CA00004F101432846C9B2FFF7BEFF012070BD01
:102CB000A34020EA0301F5E71FB54FF47A730191B1
:102CC0000293009201230246D0210448FEF7CAFE77
:102CD000003018BF012005B05DF804FB780000202B
:102CE0000346032202216B20FFF7B2BF03460222F4
:102CF00004211B20FFF7ACBF01461A20FFF794BF49
:102D00000346022204211C20FFF7A2BF024606212F
:102D10006B20FFF7BCBF024605216A20FFF7B7BF53
:102D2000024601213720FFF7B2BF2DE9F0434FF0F3
:102D30000E0885B006460D461446002142466846F8
:102D40001F4600F077FE6A4641463B20FFF7B4FF7E
:102D50009DF802309DF803809DF805C048EA0328DD
:102D60009DF804309DF809E04CEA032C9DF80830EA
:102D70009DF80B004EEA032E9DF80A309DF80C20BA
:102D800040EA03209DF80D309DF8061043EA022327
:102D90009DF807209DF8009042EA012211B20A2214
:102DA0004A43222192FBF1F29DF8011002F645629E
:102DB00041EA092131800C99A5F80080A4F800C0EF
:102DC000A7F800E008800D990B800E9B1A8005B0D3
:102DD000BDE8F08310B504460120FFF781FF002015
:102DE000FFF784FF0020FFF78BFF2046FFF784FFEB
:102DF0000020FFF78BFF0020FFF78DFF0120FFF77A
:102E00008FFF002207213720FFF741FF0022062114
:102E10003720FFF73CFF012205213720FFF737FF5E
:102E2000012204213720FFF732FF01220021382040
:102E3000FFF72DFFBDE810406420FEF78DB90000BC
:102E400010222DE9F04188B00DEB0200002100F0C6
:102E5000F1FD264BDFF89C809A69254C42F0200258
:102E60009A619A69404602F020020092009A9A699B
:102E7000332142F010029A619A69012702F0100290
:102E80000192019A9A69002642F008029A619A69B1
:102E9000022502F008020292029A9A6942F00402A4
:102EA0009A619B69002203F004030393039BFEF7DE
:102EB000F5FA0022204640F22321FEF7EFFA3323F1
:102EC00004A940460493059706960795FEF706FA6F
:102ED00040F2232304A920460493059706960795FC
:102EE000FEF7FCF908B0BDE8F08100BF0010024019
:102EF000000C01400010014008B50C480C4BDFF8F5
:102F000034E04FF4804280E808400023026183608F
:102F1000C36043618361C3610362FEF78DFC18B136
:102F2000BDE8084000F028BB08BD00BF78000020C5
:102F300000580040801A060010B5044686B01022E2
:102F4000002102A800F076FD2268114B9A421DD1A3
:102F5000104C02A9A369104843F00803A361A369B8
:102F600003F008030093009B4FF440630293122385
:102F7000039303230593FEF7B1F9E36943F4800358
:102F8000E361E36903F480030193019B06B010BD84
:102F90000058004000100240000C0140044B10B5E6
:102FA000044904461868FDF799FDE06110BD00BFB3
:102FB0005800002054E3253D2DE9F8430446C0693C
:102FC000FDF78CFD216820620546FDF791FEE16862
:102FD00081462846FDF782FDA168FDF789FE276935
:102FE00066698046E56031463846FEF73DF808B12F
:102FF000266106E0A66938463146FEF717F8002834
:10300000F6D1266961683046FDF772FE3146074603
:103010002846FDF765FD394620614846FDF760FD0D
:103020004146FDF75DFDBDE8F883000010B5054C95
:1030300004212046FFF7BCFB2046BDE810400021DC
:10304000FFF7B6BB9002002002220121064B596116
:103050005A61C3F81414C3F814240022A3F584336E
:103060005A639A63704700BF000C014000000000E3
:1030700038B51F490546FDF7EDFF00B11C4D1D4B4E
:1030800028461B681C4C5A1C0DD1FDF7F7FF6063E6
:10309000FDF7B0F914A3D3E90023FDF711FAFDF70A
:1030A000A9FCA0630FE0012B17D1FDF7E7FF054650
:1030B000FDF7A0F90CA3D3E90023FDF701FAFDF712
:1030C00099FC6063A563012202210C4B5A611961CE
:1030D000C3F81014C3F8142438BDFDF7CFFF6063A4
:1030E000DFE700BFAFF30080666666666666E63FB0
:1030F00000007A444400002000040040000C01401D
:1031000038B51F490546FDF7A5FF00B11C4D1D4B05
:1031100028461B685A1C18D1FDF7B0FF0446FDF77E
:1031200069F915A3D3E90023FDF7CAF9FDF762FC9D
:10313000154B58639C6301220221144B1A6159619B
:10314000C3F81414C3F8102438BD012B0E4C0DD154
:10315000FDF794FF6063FDF74DF907A3D3E9002362
:10316000FDF7AEF9FDF746FCA063E4E7FDF786FF47
:103170006063F9E7AFF30080666666666666E63F01
:1031800000007A444400002000040040000C01408C
:103190000268204B10B59A423BD11F4C1F4B21783F
:1031A0001F4A4C291BD04FF0000007D8422913D0EA
:1031B00046290CD00021196000230AE04E2910D0C6
:1031C0005229F7D14FF0FF311960164B01E018601A
:1031D000154B1360154811E01860154BF9E70121F4
:1031E000F2E7186000231360124A10481360124A75
:1031F00003611360114AC36013600362FFF7CEFEE0
:10320000002323700122BDE8104003490C48FFF75A
:10321000E3BB10BD00480040000200204400002035
:10322000580000208FC2F5BC0AD723BD68020020D9
:103230000AD7233D400000203C0000204800002029
:1032400010030020000000002DE9F04F036887B054
:10325000B3F1804F40F0DE80754ADFF81C82D368FE
:10326000744D83F40073D360734E744C744FDFF865
:103270000C92744B2A4631460293019443460097C0
:103280004846FFF752FDB8F90000FDF7DDFC6E4936
:10329000FDF7E2FD6D4B05901860B7F90000FDF7F2
:1032A000D3FC6949FDF7D8FD694F04903860B4F943
:1032B0000000FDF7C9FC6449FDF7CEFDDFF8C081D1
:1032C000059AD8F800406349DFF8B8A18346086042
:1032D00010462146FDF70CFDDAF80010FDF700FC62
:1032E000049BCAF80000DFF8A0A118462146FDF7AC
:1032F000FFFCDAF80010FDF7F3FBCAF80000DFF876
:103300008CA121465846FDF7F3FCDAF80010FDF7D2
:10331000E7FBCAF80000B9F90000FDF795FC4FF093
:10332000625100F10040FDF7E3FC4B4B044618608E
:10333000B6F90000FDF788FC4FF0625100F1004043
:10334000FDF7D6FC454B1860B5F90000FDF77CFC95
:103350004FF06251FDF7CCFC414B1860FDF75CF873
:1033600082468B462046FDF757F852465B4600F0F2
:1033700069FB2BA3D3E90023FDF7A2F8FDF75AFB65
:10338000384B394C1860394BD8F800101E68054688
:103390003868FDF7ADFC2168FDF7A2FB3146FDF76B
:1033A000A7FC314607464FF07E50FDF797FB2946B4
:1033B000FDF79EFC01463846FDF792FB2060FDF7C5
:1033C0002BF819A3D3E90023FDF77AF8FDF732FBB8
:1033D00001462748FFF7F0FD264B00211860044600
:1033E000FDF724FE30B104F1004007B0BDE8F04F16
:1033F000FFF73EBE00212046FDF736FE28B12046ED
:1034000007B0BDE8F04FFFF77BBE07B0BDE8F04F57
:10341000FFF71ABE07B0BDE8F08F00BFAFF3008022
:10342000CB67791EDCA54C40514CDE0033DF913F69
:10343000000C0140960100208E0200206402002052
:1034400094010020FE0100200000034368000020DA
:103450006C000020700000205C0000206000002054
:1034600064000020480000203C00002010000020E4
:1034700068020020400000208C020020FC01002097
:10348000180000204C0000205000002054000020B4
:1034900010B590B02822002106A800F0CBFA002138
:1034A000142201A800F0C6FA4FF48033012202244E
:1034B00007930E934FF4801306A806920A920F9377
:1034C0000D94FEF7EFFB0F234FF48062019300236E
:1034D000214601A80294039304920593FEF7B0FDE0
:1034E00010B010BD08B5FDF713FEFFF7D1FFFFF7D1
:1034F000A7FCFFF701FD00F0B1F900F039F900F089
:10350000A5F800F08FF90320FFF764FCFFF78EFDAC
:103510000F4B10481A68104B42601B680F4A8360BB
:10352000002342610E490F4A096882610E4A016018
:10353000C2610361C3600362FFF730FD0B48FEF711
:10354000C5FE01220A490B48FFF746FAFEE700BF15
:103550000C00002068020020080000200000C84283
:10356000140000200000C8C254E325BDD002002092
:10357000000200201003002070470000104B07B528
:103580009A69052042F001029A619A6902F00102EB
:103590000092009ADA6942F08052DA61DB6903F046
:1035A00080530193019BFDF7E9FD064A536823F020
:1035B000E06343F08063536003B05DF804FB00BF39
:1035C00000100240000001407047FEE7FEE7FEE702
:1035D000FEE7704770477047FDF7ACBD0148FEF746
:1035E0003EBF00BFD00200200148FFF75DBA00BF18
:1035F000500300200148FFF757BA00BF1003002016
:103600000F4B1A6842F001021A6059680D4A0A40CD
:103610005A601A6822F0847222F480321A601A68A2
:1036200022F480221A605A6822F4FE025A604FF493
:103630001F029A604FF00062034B9A60704700BF10
:10364000001002400000FFF800ED00E07FB51022FE
:10365000002102A800F0EEF940F2CF224FF08041A5
:103660001348002380E806004FF47A720093019318
:103670008360C26003618361FEF7CCFF08B1FFF78E
:103680007BFF4FF4805302A909480293FEF72AFEFC
:1036900008B1FFF771FF00236946054800930193C5
:1036A000FFF79CF808B1FFF767FF07B05DF804FB70
:1036B000D0020020036807B5B3F1804F15D103F5A0
:1036C0000433DA691C2042F00102DA61DB6900226E
:1036D00003F0010300930121009BFDF761FD1C2015
:1036E000FDF792FD03B05DF804FB074A9342F9D160
:1036F000064BDA6942F00202DA61DB6903F0020389
:103700000193019BEEE700BF00040040001002405F
:1037100010B5044686B01022002102A800F08AF9F4
:103720002268104B9A421AD103F503339A6902A911
:1037300042F010029A619B690B4803F01003019359
:10374000019BC0230293022303930593FDF7C6FD5B
:10375000064A536843F0E06343F44063536006B0A5
:1037600010BD00BF000400400010014000000140F7
:1037700010B58EB01022002103A800F05BF90024E0
:103780001C2221460DEB02000194029400F052F934
:1037900040F257432148224A846080E80C0040F2FE
:1037A000E7330461C3608461FEF734FF08B1FFF7BB
:1037B000E3FE4FF4805303A918480393FEF792FDEC
:1037C00008B1FFF7D9FE1548FEF73EFF08B1FFF735
:1037D000D3FE002401A9114801940294FEF7FEFFD4
:1037E00008B1FFF7C9FE6023002207A90B48079321
:1037F000089409940B94FEF76DFF08B1FFF7BCFE27
:10380000042207A90548FEF765FF08B1FFF7B4FEDB
:103810000248FFF77DFF0EB010BD00BF90020020F0
:103820000004004008B54FF4E13E0A480A4B0C2260
:1038300080E80840002342618360C36003618361C4
:10384000C361FFF79BF818B1BDE80840FFF794BECD
:1038500008BD00BF500300200038014008B54FF4F8
:10386000165E0A480A4B0C2280E808400023426199
:103870008360C36003618361C361FFF77FF818B1A0
:10388000BDE80840FFF778BE08BD00BF1003002068
:1038900000480040102230B5044689B00DEB02000C
:1038A000002100F0C7F82368374A934231D1374BE3
:1038B00002249A6904A942F480429A619A693448C0
:1038C00002F480420092009A9A6942F004029A61DE
:1038D0009B69059403F004030193019B4FF400736B
:1038E000049303230793FDF7F9FC4FF480630493DB
:1038F000002304A9264805930693FDF7EFFC252035
:1039000001222146FDF74CFC2520FDF77DFC09B086
:1039100030BD204A9342FAD11C4B0225DA6904A932
:1039200042F48022DA61DA691B4802F480220292B2
:10393000029A9A69002442F010029A619B690595E7
:1039400003F010030393039B4FF48063049303235A
:103950000793FDF7C3FC4FF4006304A90E480493DA
:1039600005940694FDF7BAFC0C4A272053682946B3
:1039700023F0300343F0E06343F01003536022462A
:10398000FDF70EFC2720C0E7003801400010024080
:1039900000080140004800400010014000000140C4
:1039A000002103E00B4B5B58435004310A480B4B9A
:1039B00042189A42F6D30A4A02E0002342F8043B36
:1039C000084B9A42F9D3FFF71BFE00F00FF8FFF700
:1039D00089FD7047B83F000800000020200000204B
:1039E0002000002090030020FEE7000070B50025B5
:1039F0000C4E0D4CA41BA410A54209D100F096FA60
:103A000000250A4E0A4CA41BA410A54205D170BD86
:103A100056F8253098470135EEE756F82530984797
:103A20000135F2E7B03F0008B03F0008B03F0008A2
:103A3000B43F000803460244934200D1704703F8A4
:103A4000011BF9E700F000B82DE9F84F564223F0CA
:103A5000004E1643DFF8A0914EEAD6764E45044656
:103A60000D46884607D8464221F00047064347EAFC
:103A7000D6764E4506D920462946FCF76FFB04460C
:103A80000D4615E003F1404606F58016164303D1B6
:103A9000BDE8F84F00F0B4B89E1706F0020646EAFB
:103AA000D17650EA070107D1022E30D0032E32D052
:103AB00020462946BDE8F88F52EA0E0106D1B8F13A
:103AC000000F71DA3AA5D5E90045F1E7CE4526D1D8
:103AD000774511D1022E07D0032E09D0012E5DD1DA
:103AE00035A5D5E90045E3E735A5D5E90045DFE78C
:103AF00035A5D5E90045DBE7022E08D0032E0AD014
:103B0000012E4FF000044DD14FF00045D0E730A515
:103B1000D5E90045CCE730A5D5E90045C8E74F45D4
:103B2000CDD0A7EB0E073F153C2F1EDC002B01DA92
:103B30003C371EDB20462946FCF7ECFD00F0F2F98D
:103B400000F05EF804460D46012E15D0022E16D068
:103B5000002EADD022A3D3E9002320462946FCF74E
:103B6000FBFA1BA3D3E9002315E01FA5D5E9004507
:103B7000EAE700240025E7E705F1004598E718A3E8
:103B8000D3E9002320462946FCF7E6FA02460B4615
:103B90000FA1D1E90001FCF7DFFA70E714A5D5E920
:103BA000004585E7002583E70FA5D5E900457FE7B8
:103BB000182D4454FB21F9BF182D4454FB21E9BFB3
:103BC000D221337F7CD90240D221337F7CD902C0FD
:103BD000182D4454FB210940182D4454FB2109C0E1
:103BE000075C143326A6A13C182D4454FB21F93F51
:103BF000182D4454FB21E93F0000F07F0000000035
:103C00002DE9F84FBA4B21F000469E4204460D467E
:103C10008B4617DDB74A964201DC09D140B12246F6
:103C20002B4620462946FCF799FA04460D4605E046
:103C3000BBF1000FB04C00F32981B04D204629465E
:103C4000BDE8F88FAE4B9E4211DCA3F1DE739E42BD
:103C50000ADC8FA3D3E90023FCF780FA0022A94BEA
:103C6000FCF7BEFE0028E9D14FF0FF3A27E000F054
:103C700059F9A54B04469E420D4600F3B880A3F5C2
:103C800050239E4200F39C8002460B46FCF766FAE6
:103C900000229C4BFCF760FA002206460F464FF0CC
:103CA000804320462946FCF759FA02460B46304627
:103CB0003946FCF72FFD4FF0000A04460D46224618
:103CC0002B4620462946FCF7FBFB02460B46804666
:103CD0008946FCF7F5FB70A3D3E9002306460F469F
:103CE000FCF7EEFB6EA3D3E90023FCF737FA32466C
:103CF0003B46FCF7E5FB6CA3D3E90023FCF72EFA67
:103D000032463B46FCF7DCFB69A3D3E90023FCF712
:103D100025FA32463B46FCF7D3FB67A3D3E90023E1
:103D2000FCF71CFA32463B46FCF7CAFB64A3D3E916
:103D30000023FCF713FA42464B46FCF7C1FB62A393
:103D4000D3E900238046894630463946FCF7B8FB64
:103D50005FA3D3E90023FCF7FFF932463B46FCF7AB
:103D6000AFFB5DA3D3E90023FCF7F6F932463B46EF
:103D7000FCF7A6FB5AA3D3E90023FCF7EDF9324682
:103D80003B46FCF79DFB58A3D3E90023FCF7E4F97D
:103D900032463B46FCF794FBBAF1FF3F02460B4626
:103DA0004ED140464946FCF7D9F922462B46FCF74E
:103DB00087FB02460B4620462946FCF7CDF934E73F
:103DC0000022504BFCF7C8F9002206460F464D4B27
:103DD00020462946FCF7C2F902460B4630463946D2
:103DE000FCF798FC4FF0010A04460D4667E7474B85
:103DF0009E421ADC0022464BFCF7AEF90022064632
:103E00000F46434B20462946FCF75AFB00223D4B08
:103E1000FCF7A4F902460B4630463946FCF77AFC1B
:103E20004FF0020A04460D4649E702460B460020C1
:103E30003849FCF76FFC4FF0030A04460D463EE795
:103E400040464946FCF78AF922462B46FCF738FBE8
:103E5000314E324B4FEACA0A56449A44DAE90023FB
:103E6000FCF77AF922462B46FCF776F902460B4618
:103E7000D6E90001FCF770F9BBF1000F04460D46CE
:103E8000BFF6DCAE01F100431D46D7E6244DD5E672
:103E90009C7500883CE4377E11DA22E33AAD903F0E
:103EA000EB0D76244B7BA93F513DD0A0660DB13F71
:103EB0006E204CC5CD45B73FFF8300922449C23FD9
:103EC0000D5555555555D53F2F6C6A2C44B4A2BF9E
:103ED0009AFDDE522DDEAD3F6D9A74AFF2B0B33F66
:103EE000711623FEC671BC3FC4EB98999999C93FDE
:103EF000FFFF0F440000F07F182D4454FB21F9BF51
:103F0000FFFFDB3F0000F03FFFFFF23FFF7F03407A
:103F10000000F83F0000F0BF703F0008903F00082D
:103F2000FB21F93F21F0004170470000F8B500BFC8
:103F3000F8BC08BC9E467047F8B500BFF8BC08BC8A
:043F40009E467047E2
:103F480002030405060708090A0B0C0D0E0F1010D2
:103F58000000000000000000010203040607080931
:103F680000000000010203044FBB610567ACDD3FA0
:103F7800182D4454FB21E93F9BF681D20B73EF3F88
:103F8800182D4454FB21F93FE2652F227F2B7A3C00
:103F9800075C143326A6813CBDCBF07A8807703CB9
:083FA800075C143326A6913CCE
:043FB00035010008CF
:043FB40011010008EF
:103FB800010000001000000000409C450000A042E5
:103FC800A4707D3F0000FA440AD7233C00A24A04AB
:04000005080039A115
:00000001FF
